:020000040800F2
:10000000E0070020ED010008911D0008891C000890
:100010008D1D000831160008172A00080000000096
:100020000000000000000000000000007D2000082B
:100030009D1A000800000000ED1E0008FD210008C8
:10004000070200080702000807020008070200086C
:10005000070200080702000807020008070200085C
:100060000702000807020008070200080517000839
:10007000070200080702000807020008070200083C
:10008000070200080702000807020008070200082C
:10009000070200080702000807020008070200081C
:1000A000070200080702000807020008070200080C
:1000B0006122000807020008070200080702000882
:1000C00007020008070200080702000807020008EC
:1000D00007020008C92700080702000807020008F5
:1000E00007020008070200080702000807020008CC
:1000F00007020008070200080702000807020008BC
:100100000702000807020008192300080702000878
:100110000702000807020008F92300080702000888
:10012000070200080702000807020008070200088B
:1001300000F002F800F04AF80AA090E8000C8244AF
:100140008344AAF10107DA4501D100F03FF8AFF28C
:10015000090EBAE80F0013F0010F18BFFB1A43F0A5
:1001600001031847CC370000EC370000103A24BFD9
:1001700078C878C1FAD8520724BF30C830C144BF0C
:1001800004680C607047000000230024002500264E
:10019000103A28BF78C1FBD8520728BF30C148BFEA
:1001A0000B607047662903F07683642900F04C8069
:1001B000002070471FB500F09BFB040000200021C9
:1001C00002F09CFDE0601FBD10B510BD00F0ACFC5E
:1001D0001146FFF7EFFF02F0A1FC00F0CAFC03B4E8
:1001E000FFF7F2FF03BC02F040FC00000948804723
:1001F00009480047FEE7FEE7FEE7FEE7FEE7FEE709
:10020000FEE7FEE7FEE7FEE704480549054A064B20
:10021000704700000122000831010008E0010020C1
:10022000E0070020E0030020E0030020704700000A
:100230000FB4044910B503AA029800F047FB10BCA4
:100240005DF814FB340000202DE9F041064600243F
:1002500010687529314616A510D0AFF3008000282C
:1002600002DA404213A507E031688A0701D512A5DA
:1002700002E0490704D511A5012401E0AFF3008095
:1002800000210A2206F1240709E0B0FBF2FCB0FBD2
:10029000F2F302FB1C00303078541846491C002849
:1002A000F3D123462A463046BDE8F04100F0A5B818
:1002B000000000002D0000002B00000020000000C6
:1002C0002DE9F0474FF0000A89460446C0F820A007
:1002D0002046E1688847002876D0252806D0D4E952
:1002E00001219047206A401C2062F1E7E168204626
:1002F00000258847C4F81CA006460027C4F818A0AB
:100300002A2E09D0304602F0A9FB38B304EB870847
:10031000303EC8F8186019E059F8041B204604EB79
:1003200087029161E1688847012F064618D1E0698C
:10033000002820DA25F020051DE0D8F8180000EB91
:10034000800006EB40003038C8F818002046E1680D
:100350008847064602F082FB0028EED1012F0AD022
:100360002E2E08D12046E16888477F1C0646022FC2
:1003700045F02005C4DBA069002803DA404245F0BF
:100380000105A061E80701D025F01005B6B1A6F17E
:100390004100192802D8203645F400654A46314606
:1003A000204625604D46FFF7FDFE58B1012806D0D6
:1003B000ED1D25F0070000F1080989E704E005F1CB
:1003C000040985E730468AE7206ABDE8F08730B542
:1003D00005460B462A4613F8014B12F8010B08B1EB
:1003E000A042F8D01CB1002802D06D1CF1E72846CD
:1003F00030BD70477047704770472DE9F0470D4694
:1004000099469246044600F124080168880604D5FE
:10041000E06921F01001216000E00120A84201DD27
:10042000471B00E00027A1697A1902EB0900081AAE
:10043000A0612078C00602D42046AFF300800026D9
:1004400008E0D4E901211AF806009047206A401C10
:10045000761C20624E45F4DB2078C0060AD5204683
:10046000AFF3008006E0D4E9012130209047206AF4
:10047000401C2062381EA7F10107F4DC07E0D4E934
:10048000012118F805009047206A401C2062281EB0
:10049000A5F10105F3DC2046AFF3008020780006CB
:1004A00002D50220BDE8F0870120FBE770472DE967
:1004B000FF4F0C461E464FF0FF378BB0D2E90001CC
:1004C000DDF860800A908A46C1F30A5505B93D46B9
:1004D000002108464FF00000BAF1000F00F4400080
:1004E00005DA00EB80004FF4400101EA50004FEACA
:1004F0009059B9F1010F00DDB9460A9850EA4A0057
:100500000ED044F61050A5F2FF3545432F14B8F134
:10051000000F1ED07542291E1EDDC9F100021CE02D
:10052000B8F1010F4FF0000001D0302103E0F24399
:1005300005E02154401CB042FBDB30460022002184
:1005400021540B99C1F80880C1E900200FB0BDE823
:10055000F08FBD1B6D1CDEE74A4600DA694206A833
:1005600000F068FA06AB93E8070003AB83E80700E6
:1005700050460A9900F046FB8DE80700A0F50050B0
:100580001F3800900398002D0ADD42F21F014A46F1
:100590000844002303A90390684600F0AFFD09E07A
:1005A000A0F500504A461F38002303A9039068466F
:1005B00000F0B9FD8DE807000004000C03D04FF0F7
:1005C000FF30410800E01046B8F1000F03D00022D0
:1005D000009215461EE0751E05D400F08DF93032EC
:1005E00062556D1EF9D5B3460122084302D00022A0
:1005F0007F1C04E02078302801D100227F1E002AD1
:10060000099784D01DE0112D07DA00F075F930321A
:1006100062556D1C50EA0102F5D1084302D00098E2
:10062000C8B10EE00021681E05E0235C625C6354E3
:100630002254401E491C8142F7DBAB46A81B401EDA
:100640000990002004F80B000B98099AC0F8088064
:10065000C0E9002B7AE711264FF0000857E72DE993
:10066000F04F88460446D21D22F0070191B0D1E92F
:100670000001CDE90A0102F0DDF902460B98C00F36
:1006800001D02D2007E02068810701D52B2002E052
:10069000202101EAC000032A099001D0072A05DBC6
:1006A00003464146204600F085F90BE1207880069C
:1006B00001D5E06900E00620B8F1650F814606D05B
:1006C000B8F1660F18D0B8F1670F70D131E0002093
:1006D000B9F1110F009001DB112301E009F10103D1
:1006E0000AAA01A90CA8FFF7E2FEDDE90C700026BA
:1006F00009F10105834647E001204B4600904FF089
:1007000000470AAA01A90CA8FFF7D1FEDDE90DB048
:100710000C995D46002610B909F101000D18B9EBDE
:10072000050003D4C0F1FF3609F10105A5EB09006E
:100730002BE0B9F1010F01DA4FF001090020B9F106
:10074000110F0090484601DD112300E003460AAA7C
:1007500001A90CA8FFF7ABFEDDE90C704D460026A1
:100760008346207800070AD4AB4500DA5D4601A82D
:10077000012D04DD411911F8011C302907D04F4526
:1007800002DA17F1040F04DA012082460FE06D1E31
:10079000EEE7002F02DCED1B3E4403E0781CA8428C
:1007A00000DD7D1CB81B00F1010A4FF000472078E6
:1007B000000703D4AA4501DB4FF0FF3A0021B7F14F
:1007C000004F0DF143088DF8431024D002202B2355
:1007D000002F01DA7F422D230A21021EA0F1010021
:1007E00000DC5FB197FBF1FC97FBF1F201FB1C7C95
:1007F00017460CF1300C08F801CDEEE7A8F1010026
:1008000003702188090501D5452100E06521A0F18B
:10081000010800F8011C09980FA9A1EB0807FF1DAA
:1008200000B10120411901EBEA70A1693844081AAE
:10083000401EA0612078C00602D42046AFF300809D
:10084000099828B1D4E901219047206A401C206210
:100850002078C00622D52046AFF300801EE0002E8F
:1008600004DBB34502DD01A8805D00E03020D4E95F
:1008700001219047206A401C2062761CAAF10100E9
:100880005FEA000A0AD100F033F8C0680168405CF2
:10089000D4E901219047206A401C2062281EA5F15E
:1008A0000105DCDC07E0D4E9012118F8010B9047D1
:1008B000206A401C2062381EA7F10107F3DC2046A5
:1008C000AFF30080032011B041E60000074B70B584
:1008D0000D467B4400F05BF80446284600F01CF906
:1008E00010B14FF0FF3070BD204670BD2B220000CC
:1008F00000487047A001002030B5B0F10A024FEA6D
:10090000900E71F100034EEA817EB0EB0E0061EBB8
:1009100091014FEA101E4EEA017E10EB0E0041EBF2
:1009200011114FEA102E4EEA016E10EB0E0041EB52
:1009300011214FEA104E4EEA014E10EB0E0041EB32
:100940001141401841F100014FEAD00040EA4170E6
:100950004FEAD10110EB80054FEA810444EA90741C
:1009600044EB01046D1944EB0404521BA3414FF006
:10097000000348BF0A3200D530BD401C41F10001E0
:1009800030BD000001694A1C02610878704700B55B
:100990008FB0CDE901310021059105497944CDE9B8
:1009A000031011466846FFF78BFC0FB000BD000036
:1009B000E5FFFFFF2DE9F0411F46044603260168CD
:1009C000072A01F4006004DB08B116A505E016A5AE
:1009D00003E008B115A500E015A521F01000206086
:1009E000A069C01EA0610FB1401EA0612046AFF3F8
:1009F00000804FB1D4E9012138469047206A401C5D
:100A00002062C01C206206E0206AFAE7D4E90121D6
:100A100015F8010B9047761EF8D22046AFF3008000
:100A2000BDE8F0814E414E006E616E00494E4600B9
:100A3000696E66002DE9F047814616468AB0354852
:100A400078440DC88DE80D0032487844801C03AC12
:100A50000DC884E80D0041F69B300844372190FB17
:100A6000F1F290FBF1F5A5F1800501FB12041B3CAE
:100A700002D56442012000E00020DFF898A0804603
:100A80000027FA44AAF1BE0A0EE0E0070AD0324677
:100A9000684607EB470101230AEB810100F043FBA5
:100AA0008DE8070064107F1C002CEED1194F7F44A5
:100AB000AE3F19E0E80715D007EB04100DF1180A56
:100AC00090E80E008AE80E00C068F04201D1981943
:100AD00008903246012306A903A800F024FB03ABCB
:100AE00083E807006D10641C002DE3D14FF0010373
:100AF00032466946B8F1000F03A802D000F0FEFAB2
:100B000001E000F010FBC9E90001C9F808200AB0B3
:100B1000BDE8F087D42E0000007B00F08000704715
:100B200000487047800100207546FFF7F9FFAE4688
:100B300005006946534620F00700854618B020B5E9
:100B4000FFF762FBBDE820404FF000064FF00007C2
:100B50004FF000084FF0000B21F00701AC46ACE865
:100B6000C009ACE8C009ACE8C009ACE8C0098D46D2
:100B7000704710B50446AFF300802046BDE8104032
:100B8000FFF72DBB4FF0013C50F8042B51F8043B0C
:100B90009A4221D1A2EB0C03934313EACC1317D151
:100BA00050F8042B51F8043B9A4215D1A2EB0C03E8
:100BB000934313EACC130BD150F8042B51F8043BA8
:100BC0009A4209D1A2EB0C03934313EACC13DBD076
:100BD0004FF00000704700BFD01A01BAB1FA81F19E
:100BE00001F0180122FA01F0CB40C1F12001DBB283
:100BF000C0B2C01A2CFA01F3D11A914311EAC31101
:100C0000E6D170475FEA400C08BF91F0000F4FEA51
:100C10008C234FEAC12243EA51514FEA1C5018BFBE
:100C200000F5F0404FEA300018BF41F000415FEAA4
:100C30006C5C00F02980BCF1FF3F08BF40F08040B1
:100C40007047130C06BF12044FF0100C4FF0000C4D
:100C5000130E04BF12020CF1080C130F04BF120193
:100C60000CF1040C930F04BF92000CF1020CD30F93
:100C700004BF52000CF1010C11464FF00002A0F12C
:100C80001F00A0EB0C00704711F0004F08BF704729
:100C900031F000413FF4D5AF0B0C06BF09044FF013
:100CA000100C4FF0000C0B0E04BF09020CF1080CE5
:100CB0000B0F04BF09010CF1040C8B0F04BF89005A
:100CC0000CF1020CCB0F04BF49000CF1010CCCF16C
:100CD0002003A0EB0C0022FA03F302FA0CF241EA23
:100CE000030100F10100704720F07F4C80EA03000F
:100CF00023F07F47ACEB070303F57C5300F0004083
:100D000003F1FF032DE980494FEA154B09B44FEA7F
:100D1000144325EA0B4E24EA03480FF2042606EB9F
:100D2000132749083E785FEA320203FB0667C7F5DE
:100D3000000707FB06F64FEA54374FEAD64606F19E
:100D4000020607FB066CCCF1005C4FEA1C472CEA5C
:100D5000074C07FB06F40CFB06F504EB15464FEABF
:100D6000961634BF00204FF000404FEAD13706FB03
:100D700007FC4FEA1C4C0CFB0BF7D21B03FB0CF7D8
:100D800061EB07010CFB0EF7B0EB074072EB17426B
:100D90000CFB08F734BFA2EB0742B2EB074261EB52
:100DA00017414FEA0C444FEA910706FB07FC4FEA54
:100DB0001C4C0CFB0BF7B0EBC74072EB573203FB3C
:100DC0000CF734BFA2EBC742B2EBC74261EB57311D
:100DD0000CFB0EF7B0EBC70072EB57720CFB08F779
:100DE00034BFA2EBC702B2EBC70261EB5771039F9E
:100DF0004FEA816141EA921104EBCC044FEAD1370A
:100E00004FEA826206FB07FC42EA90124FEA8060DA
:100E10004FEA1C4C0CFB0BF7D21B03FB0CF761EBEE
:100E200007010CFB0EF7B0EB074072EB17420CFB0F
:100E300008F734BFA2EB0742B2EB074261EB174160
:100E40004FEA8C554FEA910704EB9C2406FB07FC04
:100E50004FEA1C4C0CFB0BF7B0EBC74072EB573260
:100E600003FB0CF734BFA2EBC742B2EBC74261EB06
:100E700057310CFB0EF7B0EBC70072EB57720CFB4F
:100E800008F734BFA2EBC702B2EBC70261EB5771A0
:100E900015EB4C254FEA816141EA92114FEA8262DB
:100EA0004FEAD13742EA901206FB07FC44F10004F6
:100EB0004FEA80604FEA1C4C0CFB0BF7D21B03FB84
:100EC0000CF761EB07010CFB0EF7B0EB074072EB80
:100ED00017420CFB08F734BFA2EB0742B2EB074204
:100EE00061EB174115EB1C154FEA813141EA924144
:100EF0004FEA823242EA90424FEA80304FEA0C7663
:100F000044F1000448EA03434EEA0B484FF0000E58
:100F1000B2EB080C71EB030724BF624639464EEB77
:100F20000E0E4FF0000B0018524149414BEB0B0BDA
:100F3000B2EB080C71EB03077BF1000B24BF624698
:100F400039464EEB0E0E4FF0000B0018524149414E
:100F50004BEB0B0BB2EB080C71EB03077BF1000BB7
:100F600024BF624639464EEB0E0E51EA020718BF07
:100F700046F0010616EB0E7655F1000254F1000121
:100F800003D5BDE88901BDE80088BDE88901BDE859
:100F90000048B619524141EB0101A3F1010370472A
:100FA00080807F7E7D7C7B7A7978777676757473A6
:100FB000727171706F6E6E6D6C6C6B6A6A69686865
:100FC000676666656464636362616160605F5F5EFB
:100FD0005E5D5D5C5C5B5B5A5A5959585857575671
:100FE00056555555545453535252525151505050D6
:100FF0004F4F4F4E4E4D4D4D4C4C4C4B4B4B4A4A28
:101000004A4949494848484747474746464645456B
:1010100045444444444343434342424242414141A4
:10102000002B9C4630D477002BD01CB54FEA3707F5
:1010300003B44FF010004FF01001BAF1000F06D0CA
:10104000BCF1000FDCBF40F0080040F008014FF099
:1010500000000FBCBDE810400BF1010BBBF1010F0C
:1010600008BF5FEA170722BF12F1010211F1010167
:101070004FF0004143F1000300F0004043EA00005C
:101080007047F9D35708D0E746EA064613F1400FF8
:101090004FEA16461FDD13F1200FDFBF16430A4645
:1010A000002120335B42BED0C3F1200746EA06464A
:1010B00002FA07F74FEA164646EA0706C3F1200789
:1010C00022FA03F201FA07F721FA03F14FF00003C5
:1010D00042EA0702A7E746EA020646EA06464FEA60
:1010E000164646EA0106BCBF46EA0646360C4FF0F5
:1010F00000034FF000024FF0000194E72DE9804C0F
:101100009A46934670B491E8380007C831EA400C1B
:1011100048BF34EA430C03D5FFF7E6FDFFF780FF35
:10112000F0BCBDE8008C2DE9804C9A46934670B423
:1011300091E8380007C810F0804F08BF13F0804FC7
:1011400003D100F005F8FFF76BFFF0BCBDE8008CA1
:1011500020F07F4780EA030023F07F4C07EB0C036D
:10116000A3F57C5300F00040A3F1FE0392F0000FC2
:1011700000F0B38095F0000F00F077802DE9014971
:101180004FEA11404FEA144621EA004800FB06FCF2
:1011900024EA064708FB06F607FB08F800FB07F7FA
:1011A00018EB06484CEB164C4FEA124B18EB07486D
:1011B0004FEA15464CEB174022EA0B4E0BFB06FCA0
:1011C00025EA06470EFB06F607FB0EFE0BFB07F7AC
:1011D0001EEB064E4CEB164C4FF000061EEB074E76
:1011E0004CEB174B18EB0B0840F1000018EB0E0B03
:1011F00058EB000840F100008F1A4FF000013CBF8F
:10120000C943661B14BFB5EB040C00213CBFC943A6
:10121000F61B4FEA17444EEA8E0E27EA04454FEAC2
:101220001C4704FB07622CEA074C05FB07F70CFB85
:1012300005F604FB0CFC16EB074642EB174216EBD7
:101240000C4642EB1C421BEB060658EB02024141E6
:1012500046EA9E0601D5BDE80189B619524141EB27
:101260000101A3F10103BDE801894FEA14454FEAEA
:10127000114724EA054621EA074C05FB07F406FB63
:1012800007F70CFB06F105FB0CFC11EB074144EBE7
:1012900017444FEA124711EB0C4144EB1C4422EA7D
:1012A000074C05FB07F206FB07F70CFB06F605FBF0
:1012B0000CFC16EB074642EB174216EB0C4642EBD2
:1012C0001C456A1854F1000148BF7047B6195241D5
:1012D00041EB0101A3F10103704795F0000F37D0F6
:1012E0004FEA11424FEA144721EA024624EA074C2A
:1012F00002FB07F106FB07F70CFB06F402FB0CFCF4
:1013000014EB074441EB17414FEA154714EB0C442B
:1013100041EB1C4125EA074C02FB07F506FB07F7EA
:101320000CFB06F602FB0CFC16EB074645EB1745DB
:1013300016EB0C4645EB1C42121951F1000148BF57
:101340007047B619524141EB0101A3F10103704707
:101350004FEA14454FEA114724EA054621EA074CB3
:1013600005FB07F106FB07F70CFB06F24FF0000642
:1013700005FB0CFC12EB074241EB174112EB0C4250
:1013800051EB1C4148BF7047921841EB0101A3F19A
:101390000103704721B1826842F00102826003E0DC
:1013A000826822F001028260704721B1826842F4B3
:1013B0008072826003E0826822F4807282607047EB
:1013C00010B504461248844208D10121401500F0AE
:1013D000DBFD0021601500F0D7FD17E00D488442C9
:1013E00008D10121001500F0CFFD0021201500F0EB
:1013F000CBFD0BE00848844208D10121C80300F06E
:10140000C3FD00214FF4004000F0BEFD10BD000000
:101410000024014000280140003C014021B18268C5
:1014200042F48012826003E0826822F480128260BB
:101430007047014600208A6802F004020AB10120C8
:1014400000E000207047014600208A6802F0080290
:101450000AB1012000E000207047000030B50246CC
:101460000020002350680F4C20400D790C6844EA9E
:1014700005242043506090680B4C2040D1E9025471
:101480002C434D7944EA450420439060D06A20F40F
:1014900070000C7C641EE4B2234340EA0350D06227
:1014A00030BD0000FFFEF0FFFDF7F1FFF0B5044690
:1014B0000D4600200021092D11DDE068A5F10A0686
:1014C00006EB4607072606FA07F18843A5F10A0648
:1014D00006EB460603FA06F10843E0600CE02069DB
:1014E00005EB4507072606FA07F1884305EB450695
:1014F00003FA06F108432061072A0FDA606B561ED3
:1015000006EB86071F2606FA07F18843561E06EBF0
:10151000860605FA06F10843606322E00D2A0FDA19
:10152000206BD61F06EB86071F2606FA07F18843B5
:10153000D61F06EB860605FA06F10843206310E085
:10154000E06AA2F10D0606EB86071F2606FA07F1F0
:101550008843A2F10D0606EB860605FA06F108435C
:10156000E062F0BD816841F00801816070478168E8
:1015700041F004018160704700B587B001214FF44C
:10158000047000F0F1FC4FF4004000F0B1FC30209A
:10159000ADF8040000208DF8070001A9224800F0F2
:1015A000B3FA2248FFF70CFF0020029001208DF8CB
:1015B0000C0000208DF80D004FF400200490002056
:1015C000059002208DF8180002A91848FFF746FF81
:1015D000072301220E211548FFF768FF0723022287
:1015E0000F211248FFF762FF01211048FFF7D2FEDA
:1015F00001210E48FFF712FF01210C48FFF7D5FE2D
:101600000A48FFF7AFFF00BF0848FFF71CFF00289C
:10161000FAD10648FFF7ABFF00BF0448FFF709FF08
:101620000028FAD107B000BD00100140002401409D
:1016300000BFFEE7002004E00021054A1154411CD0
:10164000C8B20A28F8DB0021024A11707047000076
:10165000740100203A00002039B1084A12680123C1
:1016600083401A43054B1A6006E0044A12680123BE
:1016700083409A43014B1A60704700000074004099
:1016800041B1094A12684FF4805383401A43064B14
:101690001A6007E0044A12684FF4805383409A436B
:1016A000014B1A60704700000074004010B5012122
:1016B000480700F049FC00214FF0005000F044FCC6
:1016C00010BD000030B5002200230A4C226840F60D
:1016D000FE748440A243D1E900452C438D682C431D
:1016E000CD6844EA050303FA00F42243014C22606A
:1016F00030BD000000740040002101604160816045
:10170000C160704710B5022000F048F940B10549AA
:10171000488800F0C5F904490880022000F04CF820
:1017200010BD0000200000202C00002000B58DB06E
:101730000121084600F0E8FB1C4800F089F802A8E7
:1017400000F069F91A4802901A48039000200490AA
:10175000022005900020069080200790400008900D
:101760008000099020200A90C0010B9000200C906E
:1017700002A90E4800F031F9012202210B4800F0C5
:1017800023F90B208DF8040003208DF805008DF857
:10179000060001208DF8070001A800F0FBFA0121E6
:1017A000024800F017F80DB000BD0000080002402C
:1017B0004C2401402000002000F0805111B1034969
:1017C000086001E0024948607047000004040240DC
:1017D0000000024021B1026842F00102026004E010
:1017E00002684FF6FE731A400260704700B58BB076
:1017F0000121022000F088FB124800F029F8684619
:1018000000F009F9102002900220039000200490BB
:10181000802005904000069080000790C00009904D
:1018200000200A9020200890074800900748019067
:101830006946044800F0D1F801210248FFF7CAFFC9
:101840000BB000BD4404024014740040240000208A
:1018500001684FF6FE721140016000210160416095
:101860008160C1604B49884208D14A4908394968BA
:1018700041F00F01474A083A51608AE04549143166
:10188000884208D143490839496841F0F001414A8A
:10189000083A51607DE03F492831884208D13D49EE
:1018A0000839496841F470613A4A083A516070E079
:1018B00038493C31884208D136490839496841F4F1
:1018C0007041344A083A516063E0324950318842ED
:1018D00008D130490839496841F470212D4A083A45
:1018E000516056E02B496431884208D129490839B2
:1018F000496841F47001274A083A516049E0254996
:101900007831884208D123490839496841F070612B
:10191000204A083A51603CE01F49884206D1011F25
:10192000096841F00F01021F116032E01A491431B9
:10193000884208D11849091F096841F0F001164A88
:10194000121F116025E014492831884208D112493C
:10195000091F096841F470610F4A121F116018E0F5
:101960000D493C31884208D10B49091F096841F4EF
:101970007041094A121F11600BE00749503188423B
:1019800007D10549091F096841F47021024A121F55
:101990001160704708000240080402400146002020
:1019A000002201F0805313B1054B1A6801E0054B8A
:1019B0001A6802EA01030BB1012000E00020704721
:1019C00000040240000002401AB103680B430360A8
:1019D00002E003688B430360704710B50022026881
:1019E00047F6F0739A430C6A8B6823430C692343D0
:1019F0004C6923438C692343CC6923434C6A2343BA
:101A00008C6A23431A430260CB6843600B6883608F
:101A10004B68C36010BD0021016041608160C160FE
:101A2000016141618161C16101624162816270470E
:101A300000B585B00121042000F096FA0121480785
:101A400000F072FA2020ADF8100000208DF813008D
:101A500003208DF8120020210F4800F0E0F804A9BF
:101A60000D4800F051F8FFF721FE6846FFF744FEED
:101A70002C200090002001900290039069461020D5
:101A8000FFF720FE01211020FFF7E6FD01211020C5
:101A9000FFF7F6FD05B000BD0008014070470000EB
:101AA0002DE9F14F1248008801F045FA0646114A27
:101AB000114B01F053FA04460D46009801F03BFA31
:101AC00006460E4A0E4B01F049FA804622462B4646
:101AD00001F05CF9824601F001FA0A4908800846E3
:101AE00000880349088007480088BDE8F88F000097
:101AF0001A0000206F8104C58F31EF3F20D26F5F45
:101B000007CE993F180000202DE9F041024600253C
:101B10000026002000230024002791F803C00CF0C9
:101B20000F0591F803C00CF0100CBCF1000F03D0AE
:101B300091F802C04CEA050591F800C0BCF1000F15
:101B400031D0146800202BE04FF0010C0CFA00F3A8
:101B5000B1F800C00CEA03069E4220D183004FF08A
:101B60000F0C0CFA03F7BC4305FA03FC4CEA04041F
:101B700091F803C0BCF1280F06D14FF0010C0CFA0C
:101B800000FCC2F814C00AE091F803C0BCF1480F91
:101B900005D14FF0010C0CFA00FCC2F810C0401C3B
:101BA0000828D1D31460B1F800C0BCF1FF0F34DDB8
:101BB000546800202EE000F1080C4FF0010808FAEC
:101BC0000CF3B1F800C00CEA03069E4221D1830059
:101BD0004FF00F0C0CFA03F7BC4305FA03FC4CEA78
:101BE000040491F803C0BCF1280F05D100F1080CE2
:101BF00008FA0CF8C2F8148091F803C0BCF1480F41
:101C000007D100F1080C4FF0010808FA0CF8C2F8EF
:101C10001080401C0828CED35460BDE8F0810161DB
:101C20007047000070B51448006888B913490888E7
:101C300001F0F8FC05464FF07E5101F0A3FB04468D
:101C400021460F4801F00CFC0E490860012070BDD0
:101C50000948001F006820B900200A4908600220D6
:101C6000F5E705480838006818B9002005490860FC
:101C7000EDE70220EBE70000A00122422C08004023
:101C80004054894B1400002000BFFEE74CF6CC40C6
:101C900001490860704700000030004010B500F0B6
:101CA00013F810BD70B505460C4645F2555000F0CE
:101CB0001FF8284600F010F8204600F013F800F056
:101CC00003F8FFF7E3FF70BD4AF6AA200149086058
:101CD0007047000000300040014948607047000034
:101CE000003000400149886070470000003000402B
:101CF0000149086070470000003000404FF07E50FE
:101D000006490860002048608860C860044808618F
:101D1000044848614FF07E50886170479000002071
:101D20000AD7A33C0000A03F08B50121102000F015
:101D30001BF94FF48070ADF8000010208DF80300FF
:101D400003208DF8020069460F48FFF7DDFE4FF4CF
:101D500080710D48FFF763FF8020ADF800006946F1
:101D60000948FFF7D1FE80210748FFF758FF4020C0
:101D7000ADF8000069460448FFF7C6FE402102485E
:101D8000FFF74DFF08BD00000010014000BFFEE757
:101D90007047000070B5002100230F22C47804B3FF
:101DA000154C246804F4E064C4F5E064210AC1F130
:101DB0000403CA40447804FA03F1847814402143B0
:101DC00009010E4C0678A155047804F01F05012482
:101DD000AC4005786D11AD0005F1E025C5F8004176
:101DE00009E0047804F01F050124AC40044D067896
:101DF000761145F8264070BD0CED00E000E400E0EF
:101E000080E100E002490143024A1160704700008E
:101E10000000FA050CED00E000218161C161416222
:101E2000C162018470472DE9F05F824614461D4669
:101E30000AAE96E8C00BCAE90045CAE90267CAE9DA
:101E40000489584601F0EEFBCAF828000F9801F00B
:101E5000E9FBCAF83000BDE8F09F2DE9F04786B0F5
:101E60000446894692465146484601F09FFCA061CF
:101E7000A06901F05BFA0546D4E902733A4601F025
:101E80006DF8CDE90201D4E9060101F08FFC0546A9
:101E900001F04CFA0746D4E900532A4601F05EF8F7
:101EA000CDE90001DDE9022300F070FFCDE9040176
:101EB00000F03AFFE062206B80F000452846E16ABE
:101EC00001F043FC03D8206B80F0004007E0D4E928
:101ED0000B0101F03AFC01D8206B00E0E06AE062FF
:101EE000A069E061E06A06B0BDE8F08770470000D5
:101EF00001460020034A506820F4404008435060E7
:101F0000704700000010024029B1064A526902439E
:101F1000044B5A6104E0034A52698243014B5A61FF
:101F2000704700000010024029B1064AD2690243FE
:101F3000044BDA6104E0034AD2698243014BDA615F
:101F4000704700000010024029B1064A126902439E
:101F5000044B1A6104E0034A12698243014B1A617F
:101F6000704700000010024029B1064A92690243FE
:101F7000044B9A6104E0034A92698243014B9A61DF
:101F8000704700000010024029B1064AD26802439F
:101F9000044BDA6004E0034AD2688243014BDA6002
:101FA000704700000010024030B5002100220024DC
:101FB00000232D4D6D6805F00C0121B1042905D0D9
:101FC000082923D105E0294D056022E0274D056051
:101FD0001FE0254D6D6805F47012234D6D6805F402
:101FE0008034022505EB92421CB9214D5543056012
:101FF0000BE01D4D6D6805F400351DB11C4D5543BA
:10200000056002E0194D5543056002E0174D05607B
:1020100000BF00BF144D6D6805F0F0010909154DB2
:102020006B5C0568DD4045600F4D6D6805F4E0614F
:10203000090A104D6B5C4568DD4085600A4D6D688E
:1020400005F46051C90A0B4D6B5C4568DD40C56005
:10205000054D6D6805F44041890B074D6B5CC56803
:10206000B5FBF3F5056130BD0010024000127A00A7
:1020700000093D003D0000204D0000207047000099
:10208000F0B5B3B00026002700250FE01548008802
:102090000E38144908804FF4FA7000F00BFD124816
:1020A000008801A921F81500681CC5B2642DEDDD7A
:1020B00000240AE001A830F81400B84203DD01A8AA
:1020C00030F814702646601CC4B2642CF2DD05485A
:1020D000008800F5AF600E2101FB16000149088061
:1020E00033B0F0BD2C0800402000002010B500F0F7
:1020F00001F810BD0CB50020019000903348006835
:1021000040F480303149086000BF3048006800F476
:10211000003000900198401C0190009818B9019877
:10212000B0F5A06FF1D12948006800F4003010B17B
:102130000120009001E0002000900098012843D188
:102140002348006840F010002149086008460068F4
:1021500020F0030008600846006840F002000860B4
:102160001A4840681949486008464068486008466F
:10217000406840F4806048600846406820F47C1065
:1021800048600846406840F4E81048600846006827
:1021900040F08070086000BF0C48006800F00070DC
:1021A0000028F9D00948406820F00300074948603A
:1021B0000846406840F00200486000BF034840689D
:1021C00000F00C000828F9D10CBD000000100240FE
:1021D00000200240042808D14FF0E021096941F0B5
:1021E00004014FF0E022116107E04FF0E02109699E
:1021F00021F004014FF0E0221161704770470000A8
:1022000010B51348006840F0010011490860084605
:102210004068104908400E494860084600680E4969
:1022200008400B4908600846006820F480200860D8
:102230000846406820F4FE0048604FF41F008860A4
:10224000FFF754FF4FF000600449086010BD000024
:10225000001002400000FFF8FFFFF6FE08ED00E06E
:1022600010B50121880700F02FFA28B10121880755
:1022700000F026F9FFF712FD10BD00003EB505463F
:102280000C4601210220FFF74FFE0E4800F028F90E
:10229000684600F08FFAA8B2ADF80400ADF800402F
:1022A0000020ADF80600ADF802006946054800F0D0
:1022B0002FFA2021034800F021FA0121014800F003
:1022C00002F93EBD000400403EB504460121042051
:1022D000FFF72AFE0E4800F003F9684600F06AFA9C
:1022E000601C0C4991FBF0F080B2ADF804000120B5
:1022F000ADF800000020ADF80600ADF80200694618
:10230000034800F005FA2021014800F0F7F93EBD2E
:102310000008004080A8120170B50121194800F0A2
:10232000D3F918B10121174800F0CAF816480088FF
:1023300001F078F905462A4614491548FFF78DFD46
:1023400004460021204601F000FA0DD21149088808
:1023500001F068F90646214601F014F8054601F03F
:1023600041F90C4908800CE00A49088801F05AF943
:102370000646214601F006F8054601F033F9054905
:10238000088070BD000C00402C00002000100645A5
:10239000580000202C0800407FB505460C4601215E
:1023A0000820FFF7C1FD134800F09AF801A800F0DB
:1023B00001FAA8B2ADF80800ADF804400020ADF86D
:1023C0000A00ADF8060001A90A4800F0A1F90122AF
:1023D0001146084800F089F932208DF800000120EC
:1023E0008DF801008DF802008DF803006846FFF7B4
:1023F000D1FC7FBD000C0040F8B5002401210E483F
:1024000000F062F9B0B101210B4800F059F8FFF774
:1024100009FC0A4908700A48006800F087FF054671
:102420002A460B4605480094017806A0FDF700FFF8
:10243000FFF734FCF8BD0000001000401C00002035
:102440001400002025642C252E33662C25640D0AEB
:10245000000000007FB505460C4601211020FFF763
:1024600063FD164800F03CF801A800F0A3F9A8B2FB
:10247000ADF80800ADF804400020ADF80A00ADF852
:10248000060001A90D4800F043F9012211460B484E
:1024900000F02BF936208DF8000002208DF80100A5
:1024A0008DF8020001208DF803006846FFF772FCEA
:1024B0000121024800F007F87FBD00000010004035
:1024C000CA430282704721B1028842F001020280B1
:1024D00004E002884FF6FE731A4002807047000045
:1024E00010B504466848844208D10121C014FFF7A2
:1024F0004BFD0021E014FFF747FDC4E0B4F1804F2D
:1025000008D101210846FFF71FFD00210120FFF738
:102510001BFDB8E05D48844208D101210220FFF78D
:1025200013FD00210220FFF70FFDACE05848844264
:1025300008D101210420FFF707FD00210420FFF747
:1025400003FDA0E05348844208D101210820FFF791
:10255000FBFC00210820FFF7F7FC94E04E48844282
:1025600008D101211020FFF7EFFC00211020FFF718
:10257000EBFC88E04948844208D101212020FFF784
:10258000E3FC00212020FFF7DFFC7CE0444884428C
:1025900008D101214014FFF7F7FC00216014FFF778
:1025A000F3FC70E03F48844209D10121C804FFF7E1
:1025B000EBFC00214FF40020FFF7E6FC63E03A4813
:1025C000844209D101210805FFF7DEFC00214FF408
:1025D0008010FFF7D9FC56E03448844209D101212C
:1025E0004805FFF7D1FC00214FF40010FFF7CCFCA9
:1025F00049E02F48844208D101214020FFF7A4FC84
:1026000000214020FFF7A0FC3DE02A48844208D189
:1026100001218020FFF798FC00218020FFF794FC27
:1026200031E02548844208D101218015FFF78CFC58
:102630000021A015FFF788FC25E02048844209D13D
:1026400001210804FFF7A0FC00214FF48030FFF7C0
:102650009BFC18E01A48844209D101214804FFF785
:1026600093FC00214FF40030FFF78EFC0BE015487F
:10267000844208D101218804FFF786FC00214FF431
:102680008020FFF781FC10BD002C014000040040B9
:1026900000080040000C0040001000400014004002
:1026A00000340140004C0140005001400054014002
:1026B00000180040001C0040002000400040014085
:1026C000004401400048014030B50246002000238C
:1026D0000024158A05EA0103958905EA010413B16E
:1026E0000CB1012000E0002030BD1AB183890B43FA
:1026F000838102E083898B438381704782884FF610
:102700008F731A40828082880A438280704700005B
:10271000002202881D4B98420ED01D4B98420BD0D0
:10272000B0F1804F08D01B4B984205D01A4B98420D
:1027300002D01A4B984204D14FF68F731A404B883F
:102740001A43174B984207D0164B984204D04FF6C5
:10275000FF431A40CB881A4302808B8883850B88FD
:1027600003850A4B98420BD0094B984208D00E4B78
:10277000984205D00D4B984202D00D4B984201D1A2
:102780000B7A03860123838270470000002C0140EE
:10279000003401400004004000080040000C0040EC
:1027A000001000400014004000400140004401407F
:1027B000004801404FF6FF71818000210180C180F7
:1027C000418001727047000010B540F225511C484D
:1027D00000F061F888B140F22551194800F040F846
:1027E000174800F013F9C1B2164802780078401C6F
:1027F000144B18701448815421E040F224411048D1
:1028000000F049F8D8B10E4800880D48001D008836
:1028100000200C4908700DA10B48FDF7D8FD20B130
:1028200001200C490870FEF705FF0BA10648FDF7D3
:10283000CEFD20B1022007490870FEF7FBFE10BD57
:10284000003801403A000020740100205374617286
:10285000740000003C00002053746F700000000002
:1028600010B50022002340F66A14A14200D100BF37
:102870000A1201249440A3B2DC43048010BD21B1AC
:10288000828942F40052828104E082894DF6FF730E
:102890001A408281704770B502460024002300254B
:1028A000002040F66A16B14200D100BFC1F34215C4
:1028B00001F01F03012606FA03F3012D02D19689C8
:1028C000334006E0022D02D1168A334001E0968A99
:1028D00033400C12012606FA04F41688344013B172
:1028E0000CB1012000E0002070BDF0B503460024CB
:1028F00000260025002040F66A17B94200D100BF2B
:102900001846C1F3421401F01F06012707FA06F525
:10291000012C01D10C3004E0022C01D1103000E078
:1029200014301AB107682F43076002E00768AF430D
:102930000760F0BD2DE9F04786B005460E4600243D
:10294000A24600BFA1460027B08900B100BF2F46B4
:102950002C8A4CF6FF700440F08804432C82AC892A
:102960004EF6F3100440B08831890843718908435A
:102970000443AC81AC8A4FF6FF400440B089044365
:10298000AC8201A8FFF710FB1F48874202D1DDF897
:1029900010A001E0DDF80CA0A88900F4004040B1CF
:1029A0000AEBCA0000EB0A1031684900B0FBF1F8ED
:1029B00007E00AEBCA0000EB0A1031688900B0FB9F
:1029C000F1F86420B8FBF0F004012009642101FB58
:1029D0001089A88900F4004040B1322000EBC90002
:1029E000B0FBF1F000F00700044308E0322000EBF8
:1029F00009106421B0FBF1F000F00F0004432C81BA
:102A000006B0BDE8F0870000003801400146888824
:102A1000C0F30800704700BFFEE770B5044600250C
:102A200005E04FF47A7000F045F8681C85B2A542C5
:102A3000F7DD70BD490050EAC12018BF04204A0DDF
:102A400018BF40F0010040F2FF72B2EB515F08BFC7
:102A500040F00200012808BF0520704730380A28DE
:102A600001D20120704700207047014600BF704727
:102A700010B56FF00400FFF7ADFB0A4800680A4983
:102A8000B0FBF1F0094908700846007800EB4001FE
:102A9000C1EBC0104FF6FF7101EAC0000449088085
:102AA00010BD00000000002000127A002E0000205F
:102AB000300000200146114A12884A434FF0E023BB
:102AC0005A6100229A611A46126942F001021A61A3
:102AD00000BF4FF0E022106900F001021AB100F4CB
:102AE0008032002AF5D04FF0E022126922F0010274
:102AF0004FF0E0231A6100229A61704730000020F5
:102B000000BF054A128802F04002002AF9D0C2B282
:102B1000014B1B1D1A8070470038014086B0FFF73B
:102B2000A7FFFFF701F94FF4A060FFF76BF94FF42F
:102B3000165000F08DF8FEF71FFDFFF7DFF850206C
:102B40006421CDE9041000210291394803913949EB
:102B500000221346CDE900013748FFF764F93648F3
:102B6000FFF75AF9FEF764FF4FF4DC70FFF7ACFB98
:102B7000FEF73CFE41F61F4140F2E730FFF70CFC48
:102B800041F61F4142F20F70FFF764FC472140F20B
:102B90001F30FFF773FBFEF7C9FD4FF47A610A207F
:102BA000FFF780F80020254908603FE024480078BE
:102BB000012824D100202249087001201F49086003
:102BC00000202049C1F8980101211F48FFF77BFC34
:102BD0004AF269701C492C310880FFF751FA012133
:102BE0001A48FFF770FC7820FFF717FF0120134900
:102BF000091F086000201349C1F8A00116E0104821
:102C00000078022812D100200D49087001200B49DC
:102C1000091D086000200B49C1F89C0100210B48E8
:102C2000FFF751FC00210848FFF74DFCBEE700000C
:102C3000C5FEB27BF2B0B03F580000209C0122429A
:102C40003C0000200000224200080040000C004030
:102C500010B586B00446012144F20400FFF784F960
:102C60004FF40070ADF8140003208DF81600182002
:102C70008DF8170005A91F48FEF746FF4FF4806046
:102C8000ADF8140004208DF8170005A91948FEF7C7
:102C90003BFF25208DF8000000208DF801008DF805
:102CA000020001208DF803006846FFF773F80194D5
:102CB0000020ADF80800ADF80A00ADF80C00ADF842
:102CC00010000C20ADF80E0001A90B48FFF732FEF2
:102CD000012240F225510848FFF707FE012240F289
:102CE00024410548FFF701FE01210348FFF7C7FD16
:102CF00006B010BD000801400038014010B50029A1
:102D00000AD00878002807D005487844FDF73AFF34
:102D1000002801D0002010BD0248784410BD0000FA
:102D2000460C00003E0C000021F00042A2F160526F
:102D3000B2F5801F01F0004328BFD2F17F6C0BD9A0
:102D40005FEA001C43EAC20242EB507018BF7047B2
:102D500028BF20F001007047B2F5801FBCBF1846A5
:102D600070474FEA410C1CF5001F02D2084600F0E4
:102D7000E7BC70B500F09CF900000089FFF7F6BFD2
:102D80004FF00040A0F580007047000010B591EAB8
:102D9000030F48BF83F0004300F1E681841A71EB12
:102DA000030C05D2121943EB0C03001B61EB0C0161
:102DB000DFF824E14FEA1154A4EB135C1EEA430F41
:102DC00018BF9EEA445F73D023EA0E03DCF1200EA5
:102DD00021EA045143F4801332D322FA0CFE10EBA3
:102DE0000E0023FA0CFE41EB0E01CCF1200E03FA8B
:102DF0000EFE10EB0E0051F10001B1F5801FCCF179
:102E0000200E32D201EB045112FA0EF2BDE810404E
:102E100058BF7047401C38BF5FEA420218BF704776
:102E2000002814BF20F0010041F100014FEA4103E6
:102E300013F5001F38BF7047A1F1C04100F086B9FB
:102E4000012A43EB0302ACF1200CDCF11F0E32BF70
:102E50004FF0000E23FA0CF310EB030041EB04518A
:102E6000B4EB115FD0D0A1EB045101F580114908FA
:102E70005FEA300001EB04510ED350F1000038BF7F
:102E800012FA0EFE08D1BDE81040C9E7401C38BF59
:102E90005FEA4202CAD1C3E7BDE810404FEA4103EE
:102EA00013F5001F38BF7047A1F1C04100F04EB9C3
:102EB0009EEA445F08D011EA5E0FBDE8104004BFEF
:102EC00001F0004100207047BDE8104070B500F0EF
:102ED000EFF800BF64FBBE3E0000E0FF4FEA115375
:102EE000A3F58063D3F11E03A8BFD3F1200C08DB48
:102EF0004FF0004242EAC12252EA505232FA03F045
:102F0000704709420BD4102BC4BF0020704703F553
:102F1000787CBCF1FF3F05D04FF0FF3070474FF099
:102F20000000704770B500F0C3F800BF49922480DC
:102F300000207047F0E7B0FA80F310FA03F10AD0EE
:102F4000C3F11D0303F580634FEA41504FEA03527A
:102F500002EBD12170474FF000007047DFF848C105
:102F600070B51CEA111E1EBF1CEA13159EEA0C0F59
:102F700095EA0C0F00F06F8081EA030423EA4C13FA
:102F80004EEAD47E21EA4C1141F4801143F48013BF
:102F9000AE44A1FB024CA0FB0365AEF17F7E361967
:102FA00055EB0C05A1FB034C4CF10003A0FB021CEC
:102FB00016EB0C06654153F10003094218BF46F0B9
:102FC000010613F4007F0BD14FEA03314FEA0530BD
:102FD000340341EA155140EA16506FF003020AE04B
:102FE0004FEAC3214FEAC520F40241EA555140EAB5
:102FF00056506FF0020202EB2E4201EB025585EAB9
:10300000CE710AD05FEA440C18BF24F0004450F19E
:10301000000041F1000120EAD47040F2FE7C6245DC
:1030200000D270BDA84214BF4FF080444FF040441E
:10303000002E08BF0024BEF1806FA8BFA1F1C041DF
:10304000BDE8704080F282804FF0000001F1C04185
:1030500001F0004170479EEA0C0F0CEA131518BFEF
:1030600095EA0C0F06D04FF0000081EA030E0EF037
:10307000004170BD00F01CF88900013E00F007B867
:1030800000F009B84FEA430C5FEA5C5C08D081EAC3
:10309000030100F05BB84FEA410C5FEA5C5CF6D1DB
:1030A0004FF00000014970470000FF070000F87F63
:1030B0000EF1020E2EF0030E5EF8046B364205D4BC
:1030C000012A43EB030515F5001F12D8012841EB37
:1030D000010C1CF5001F0CD80ED14FEAD17C15F560
:1030E000001F0CEB4C0C0CF1020C08BF4CEBD37C1A
:1030F00004E04FF0080C01E04FEAD37C0CEB4C05E8
:1031000026FA05F606F00706B6F1040C06D20EEB19
:10311000860CBDE870404CF0010C6047DFE80CF015
:10312000090B02024FF000414FF00000A1F5002111
:1031300070BD19461046012851EB010418BFD4F5A3
:10314000001484BF002001F0004170BD0808A0F504
:1031500000114FEA3101704710B591EA030F48BFE3
:1031600083F000433FF51AAE841A71EB030C07D2CB
:1031700012198CF0004C43EB0C03001B61EB0C01AB
:10318000DFF8A4E14FEA1154A4EB135C1EEA430FED
:1031900018BF9EEA445F00F0B08023EA6E035242FB
:1031A00021EA0451C3EB6E0338BF5B1EDCF1200E35
:1031B00025D322FA0CFE10EB0E0043FA0CFE41EB75
:1031C0000E01CCF1200E03FA0EFE10EB0E0051F1B1
:1031D0000001CCF1200E29D412FA0EF201EB0451B9
:1031E000BDE8104058BF7047401C1CBFB2F1004FF3
:1031F000704700280CBF491C20F00100704712EBFB
:10320000020E43EB030218BF4FF0010E4EEA4202DA
:10321000ACF1200CDCF11E0E54D943FA0CFE10EB7D
:103220000E0051F1FF31CCF11E0ED5D50EF1010E7D
:1032300012FA0EFE404141EB010101EB445C5FEAF2
:103240005C5C10D910EBDE7001EB045138BFBEF1AD
:10325000004FBDE8104018BF704700280CBF491C44
:1032600020F00100704730D24FEAD42C11F5001144
:1032700024F400641BD0B1FA81F20B3AA41AA41E04
:10328000D2F12003914030FA03F31943904001EB4F
:10329000CC71002C01EB0451BDE81040A8BF704771
:1032A00001F1C0414FF0000001F000417047B0FA59
:1032B00080F310FA03F100D110BDE41A173C480561
:1032C000C90AE4E701EB045110BD491001EB0451B8
:1032D000BDE810404FEA300002E04FF000017047B7
:1032E0004A0008BF0042F8D0B2F5001F28BF70475F
:1032F00001F000414FF0000070479EEA445F07D0A4
:1033000011EA5E0FBDE8104004BF002100207047A5
:10331000BDE8104070B5FFF7CBFE00BF40DFF63EC2
:1033200083F00041104670470000E0FF43004FEA81
:10333000D30C4FEA3C0C43401FBF40070CF16051D7
:1033400013F0FE4F70471CF0006F03D100200CF00B
:10335000004170470CF0004343EA507010B540EA5A
:10336000CC0000F0A7F900BF000000924FEA000176
:10337000FFF7ECBE4FF000414FF00000A1F5002137
:103380007047000090EA010F48BF81F0004100F152
:103390001482421A3CBF801A89184FEAD0524FF06B
:1033A0007F4C1CEA410FA2EBD15318BF9CEA026F7D
:1033B00000F03B804FF0004C4CEA00204CEA012129
:1033C00021FA03FC10EB0C0C1ED202F1FF325FEA73
:1033D0001C2040EBC25038BF70471CF07F0F4FEAF3
:1033E000400C18BFBCF17F4F38BF7047C3F12003BA
:1033F000994008BF20F00100BCF17F4F38BF7047F3
:10340000A0F1C04000F09CB94FEA3C00000A40EB3C
:10341000C25028BF1CF0FF0F4FEA400CE6D018BF87
:10342000BCF17F4F38BF7047EAE79CEA026F05D0D6
:1034300010EA5C0F08BF00F00040704710B500F0C4
:1034400039F900BF64FBBE3E401058BFC0F1404098
:10345000491058BFC1F140418142EFF300807047ED
:103460004FF47F0C1CEAD0121EBF1CEAD11392EA63
:103470000C0F93EA0C0F00F0858090EA010F48BF13
:1034800042F4807240F4000C41F400002CF07F41C3
:1034900020F07F4000B58142A2EB03020FF2081C2E
:1034A000ACEB504EC0F100009EF800E04FEA4E0E2B
:1034B00000FB0EFC38BF49004FEA2C1C02F5FA0253
:1034C0000CFB0EF34FEACE1E4FEA112C4FEAC1213E
:1034D0000EEB635E42EB22420EFB0CFC4FEA1C53E8
:1034E00000FB03114FEA112C4FEA01310EFB0CFCDB
:1034F0004FEADC4C00FB0C11C14228BF09184CEB11
:1035000003335DF804EB10EB410143EBC250B2F51D
:103510007C0F38BF704729D512F0F00F1CBF00F1A7
:10352000C04000F000407047008182838485868718
:1035300088898B8C8D8E8F919293959697999A9C72
:103540009D9FA0A2A3A5A7A8AAACAEB0B2B3B5B7E1
:10355000B9BCBEC0C2C5C7C9CCCED1D4D7D9DCDFB7
:10356000E2E6E9ECF0F3F7FAFE0000004FEA400C67
:103570000CF1807CBCF17E4F28BF7047B0F1C04099
:1035800000F0DEB890EA010F0CEAD11348BF42F414
:103590008072624538BF634507D213F47F0F16D09F
:1035A00080EA010000F00040704710B500F082F89A
:1035B000097EFC3E00F005B880EA010000F0004002
:1035C000704780EA010000F0004000F0B9B812F442
:1035D0007F0F04BF0248704780EA010000F0B0B8D6
:1035E0000000C07FC10DD1F19E0206DB4FEA00232F
:1035F00043F0004323FA02F07047004207D54FEA38
:103600004001B1F1FE4F02D24FF00000704710B5FB
:1036100000F050F849922480002070476FEA2000A3
:1036200070470000B0FA80F310FA03F2C3F19D0373
:103630000AD0D90501EB1220530638BF704700F1BC
:10364000010008BF20F001007047000050EA010CA3
:1036500000F113801CF5000F58BFBCF5000F01D41A
:103660008842704707D710F5000F58BF11F5000FBB
:1036700015D488427047894270471CF5000F04D565
:10368000BCF5000FF7D5814270474FF0807C1CEBF2
:10369000400F38BF1CEB410F01D28142704710B57B
:1036A00000F008F8922449004FF000504FF080518C
:1036B000FFF7CABE0EF1020E2EF0030E5EF8044BA9
:1036C000244204D44FEA4102B2F17F4F11D84FEAAD
:1036D0004003B3F17F4F0CD80ED14FEAD07CB2F14A
:1036E0007F4F0CEB4C0C0CF1020C08BF4CEBD17C67
:1036F00004E04FF0080C01E04FEAD17C0CEB4C03E6
:1037000024FA03F404F00704B4F1040C06D20EEB1F
:10371000840CBDE810404CF0010C6047DFE80CF071
:10372000070802024FF00040A0F5800010BD0846D7
:10373000420018BFD2F1807288BF00F0004010BD77
:10374000FF2141EAD050C005704751EA000C00F15A
:1037500013801CF5000F58BFBCF5000F01D4814247
:10376000704707D711F5000F58BF10F5000F15D49B
:1037700081427047894270471CF5000F04D5BCF5A3
:10378000000FF7D5884270474FF0807C1CEB410F4B
:1037900038BF1CEB400F01D28842704780EA01001D
:1037A00081EA000180EA0100FFF779BF90EA010F8A
:1037B00048BF81F000413FF5ECAD421A04D882F0D9
:1037C0000042A0EB020011444FEAD0524FF07F4C70
:1037D0001CEA410FA2EBD15318BF9CEA026F4AD0FA
:1037E0004FF0004C4CEA00204CEA012121FA03FC86
:1037F000B0EB0C0C0FD412F0FE0F36D05FEA4C0089
:103800001DD5001240EBC25038BF70471CF03F0F6F
:1038100018BF70470BE0A2F101025FEA1C2040EBE9
:10382000C25038BF70471CF07F0F18BF7047C3F1FC
:103830002003994014BF401E20F00100704780080B
:103840004FEA122308BF7047B0FA80FCA2EB0C02CB
:10385000CCF1280C60FA0CF093EA122F04BF00EBB5
:10386000C25070474FEAC3707047130A5FEADC101A
:1038700008BF7047F6E79CEA026F04D010EA5C0FBD
:1038800008BF0020704710B5FFF714FF40DFF63E79
:1038900081F000407047FCF7E2BE000002400000EB
:1038A000000000A00000000005400000000000C86B
:1038B000000000000C4000000000409C00000000E0
:1038C000194000000020BCBE000000003440000091
:1038D000BFC91B8E00000004B5400000504BCFD084
:1038E0006607E2CF010000006C4100003E8251AA51
:1038F000DFEEA73401000000D9420000DCB5A0E2F1
:103900003A301F97FFFFFFFFB4450000FD25A0C818
:10391000E9A3C14FFFFFFFFFFF3F00000000008051
:1039200000000000FF3F00000000008000000000D9
:103930006C39000800000020540000006C010008F1
:10394000C0390008540000208C07000088010008DE
:103950001C00000043000000F8FFFFFF0C00000007
:103960000E0000000F0000002E00000000A24A041C
:10397000000000000000000001020304060708091F
:103980000000000000000000000000000000000037
:10399000D90400000000000000000000000000004A
:1039A0000000000000000000000000000001020311
:1039B00004010203040607080902040608000000C7
:04000005080001ED01
:00000001FF
